{
  "contractName": "Supplychain",
  "abi": [
    {
      "inputs": [
        {
          "internalType": "string",
          "name": "_uniqueId",
          "type": "string"
        },
        {
          "internalType": "string",
          "name": "_batchId",
          "type": "string"
        },
        {
          "components": [
            {
              "internalType": "string",
              "name": "key",
              "type": "string"
            },
            {
              "internalType": "string",
              "name": "value",
              "type": "string"
            }
          ],
          "internalType": "struct Supplychain.KeyValuePair[]",
          "name": "_metaData",
          "type": "tuple[]"
        }
      ],
      "name": "addProduct",
      "outputs": [],
      "stateMutability": "nonpayable",
      "type": "function"
    },
    {
      "inputs": [
        {
          "internalType": "address",
          "name": "_admin",
          "type": "address"
        }
      ],
      "stateMutability": "nonpayable",
      "type": "constructor"
    },
    {
      "anonymous": false,
      "inputs": [
        {
          "indexed": false,
          "internalType": "address",
          "name": "newAdmin",
          "type": "address"
        }
      ],
      "name": "AdminUpdated",
      "type": "event"
    },
    {
      "inputs": [
        {
          "internalType": "address",
          "name": "newAdmin",
          "type": "address"
        }
      ],
      "name": "updateAdmin",
      "outputs": [],
      "stateMutability": "nonpayable",
      "type": "function"
    },
    {
      "inputs": [
        {
          "internalType": "string",
          "name": "_uniqueId",
          "type": "string"
        }
      ],
      "name": "getProductDetails",
      "outputs": [
        {
          "internalType": "string",
          "name": "",
          "type": "string"
        },
        {
          "internalType": "string",
          "name": "",
          "type": "string"
        },
        {
          "components": [
            {
              "internalType": "string",
              "name": "key",
              "type": "string"
            },
            {
              "internalType": "string",
              "name": "value",
              "type": "string"
            }
          ],
          "internalType": "struct Supplychain.KeyValuePair[]",
          "name": "",
          "type": "tuple[]"
        }
      ],
      "stateMutability": "view",
      "type": "function"
    }
  ],
  "bytecode": "608060405234801561001057600080fd5b50604051610c1e380380610c1e83398101604081905261002f91610054565b600080546001600160a01b0319166001600160a01b0392909216919091179055610084565b60006020828403121561006657600080fd5b81516001600160a01b038116811461007d57600080fd5b9392505050565b610b8b806100936000396000f3fe608060405234801561001057600080fd5b50600436106100415760003560e01c8063198c59b014610046578063c72841f614610071578063e2f273bd14610086575b600080fd5b6100596100543660046106eb565b610099565b60405161006893929190610778565b60405180910390f35b61008461007f366004610823565b6103a9565b005b610084610094366004610987565b61056e565b606080606060006001856040516100b091906109b7565b9081526020016040518091039020905060006002866040516100d291906109b7565b90815260405190819003602001902054905060008167ffffffffffffffff8111156100ff576100ff61060b565b60405190808252806020026020018201604052801561014457816020015b604080518082019091526060808252602082015281526020019060019003908161011d5790505b50905060005b8281101561030657600060028960405161016491906109b7565b90815260200160405180910390208281548110610183576101836109d3565b906000526020600020018054610198906109e9565b80601f01602080910402602001604051908101604052809291908181526020018280546101c4906109e9565b80156102115780601f106101e657610100808354040283529160200191610211565b820191906000526020600020905b8154815290600101906020018083116101f457829003601f168201915b505050505090506040518060400160405280828152602001866001018360405161023b91906109b7565b90815260200160405180910390208054610254906109e9565b80601f0160208091040260200160405190810160405280929190818152602001828054610280906109e9565b80156102cd5780601f106102a2576101008083540402835291602001916102cd565b820191906000526020600020905b8154815290600101906020018083116102b057829003601f168201915b50505050508152508383815181106102e7576102e76109d3565b60200260200101819052505080806102fe90610a23565b91505061014a565b50868360000182818054610319906109e9565b80601f0160208091040260200160405190810160405280929190818152602001828054610345906109e9565b80156103925780601f1061036757610100808354040283529160200191610392565b820191906000526020600020905b81548152906001019060200180831161037557829003601f168201915b505050505091509550955095505050509193909250565b6000546001600160a01b031633146103f75760405162461bcd60e51b815260206004820152600c60248201526b155b985d5d1a1bdc9a5e995960a21b60448201526064015b60405180910390fd5b60008351118015610409575060008251115b6104555760405162461bcd60e51b815260206004820152601b60248201527f5265717569726564206669656c647320617265206d697373696e67000000000060448201526064016103ee565b600060018460405161046791906109b7565b9081526040519081900360200190209050806104838482610a95565b50815160005b81811015610566578381815181106104a3576104a36109d3565b602002602001015160200151836001018583815181106104c5576104c56109d3565b6020026020010151600001516040516104de91906109b7565b908152602001604051809103902090816104f89190610a95565b5060028660405161050991906109b7565b9081526020016040518091039020848281518110610529576105296109d3565b60209081029190910181015151825460018101845560009384529190922001906105539082610a95565b508061055e81610a23565b915050610489565b505050505050565b6000546001600160a01b031633146105b75760405162461bcd60e51b815260206004820152600c60248201526b155b985d5d1a1bdc9a5e995960a21b60448201526064016103ee565b600080546001600160a01b0319166001600160a01b0383169081179091556040519081527f54e4612788f90384e6843298d7854436f3a585b2c3831ab66abf1de63bfa6c2d9060200160405180910390a150565b634e487b7160e01b600052604160045260246000fd5b6040805190810167ffffffffffffffff811182821017156106445761064461060b565b60405290565b604051601f8201601f1916810167ffffffffffffffff811182821017156106735761067361060b565b604052919050565b600082601f83011261068c57600080fd5b813567ffffffffffffffff8111156106a6576106a661060b565b6106b9601f8201601f191660200161064a565b8181528460208386010111156106ce57600080fd5b816020850160208301376000918101602001919091529392505050565b6000602082840312156106fd57600080fd5b813567ffffffffffffffff81111561071457600080fd5b6107208482850161067b565b949350505050565b60005b8381101561074357818101518382015260200161072b565b50506000910152565b60008151808452610764816020860160208601610728565b601f01601f19169290920160200192915050565b60608152600061078b606083018661074c565b60208382038185015261079e828761074c565b91506040848303818601528286518085528385019150838160051b86010184890160005b8381101561081257878303601f19018552815180518785526107e68886018261074c565b91890151858303868b01529190506107fe818361074c565b9689019694505050908601906001016107c2565b50909b9a5050505050505050505050565b60008060006060848603121561083857600080fd5b833567ffffffffffffffff8082111561085057600080fd5b61085c8783880161067b565b945060209150818601358181111561087357600080fd5b61087f8882890161067b565b94505060408601358181111561089457600080fd5b8601601f810188136108a557600080fd5b8035828111156108b7576108b761060b565b8060051b6108c685820161064a565b918252828101850191858101908b8411156108e057600080fd5b86850192505b83831015610976578235868111156108fe5760008081fd5b85016040818e03601f190112156109155760008081fd5b61091d610621565b888201358881111561092f5760008081fd5b61093d8f8b8386010161067b565b8252506040820135888111156109535760008081fd5b6109618f8b8386010161067b565b828b01525083525091860191908601906108e6565b809750505050505050509250925092565b60006020828403121561099957600080fd5b81356001600160a01b03811681146109b057600080fd5b9392505050565b600082516109c9818460208701610728565b9190910192915050565b634e487b7160e01b600052603260045260246000fd5b600181811c908216806109fd57607f821691505b602082108103610a1d57634e487b7160e01b600052602260045260246000fd5b50919050565b600060018201610a4357634e487b7160e01b600052601160045260246000fd5b5060010190565b601f821115610a9057600081815260208120601f850160051c81016020861015610a715750805b601f850160051c820191505b8181101561056657828155600101610a7d565b505050565b815167ffffffffffffffff811115610aaf57610aaf61060b565b610ac381610abd84546109e9565b84610a4a565b602080601f831160018114610af85760008415610ae05750858301515b600019600386901b1c1916600185901b178555610566565b600085815260208120601f198616915b82811015610b2757888601518255948401946001909101908401610b08565b5085821015610b455787850151600019600388901b60f8161c191681555b5050505050600190811b0190555056fea26469706673582212208ba899e39b7ecf89067caf2927aca5c4ebfaeb5def5f8ca32be9911ca3d8fea564736f6c63430008120033",
  "deployedBytecode": "0x608060405234801561001057600080fd5b50600436106100415760003560e01c8063198c59b014610046578063c72841f614610078578063e2f273bd14610094575b600080fd5b610060600480360381019061005b919061084d565b6100b0565b60405161006f93929190610a65565b60405180910390f35b610092600480360381019061008d9190610c29565b6103b9565b005b6100ae60048036038101906100a99190610d2e565b6105d1565b005b606080606060006001856040516100c79190610d97565b9081526020016040518091039020905060006002866040516100e99190610d97565b908152602001604051809103902080549050905060008167ffffffffffffffff81111561011957610118610722565b5b60405190808252806020026020018201604052801561015257816020015b61013f6106d9565b8152602001906001900390816101375790505b50905060005b828110156103165760006002896040516101729190610d97565b9081526020016040518091039020828154811061019257610191610dae565b5b9060005260206000200180546101a790610e0c565b80601f01602080910402602001604051908101604052809291908181526020018280546101d390610e0c565b80156102205780601f106101f557610100808354040283529160200191610220565b820191906000526020600020905b81548152906001019060200180831161020357829003601f168201915b505050505090506040518060400160405280828152602001866001018360405161024a9190610d97565b9081526020016040518091039020805461026390610e0c565b80601f016020809104026020016040519081016040528092919081815260200182805461028f90610e0c565b80156102dc5780601f106102b1576101008083540402835291602001916102dc565b820191906000526020600020905b8154815290600101906020018083116102bf57829003601f168201915b50505050508152508383815181106102f7576102f6610dae565b5b602002602001018190525050808061030e90610e76565b915050610158565b5086836000018281805461032990610e0c565b80601f016020809104026020016040519081016040528092919081815260200182805461035590610e0c565b80156103a25780601f10610377576101008083540402835291602001916103a2565b820191906000526020600020905b81548152906001019060200180831161038557829003601f168201915b505050505091509550955095505050509193909250565b60008054906101000a900473ffffffffffffffffffffffffffffffffffffffff1673ffffffffffffffffffffffffffffffffffffffff163373ffffffffffffffffffffffffffffffffffffffff1614610447576040517f08c379a000000000000000000000000000000000000000000000000000000000815260040161043e90610f0a565b60405180910390fd5b60008351118015610459575060008251115b610498576040517f08c379a000000000000000000000000000000000000000000000000000000000815260040161048f90610f76565b60405180910390fd5b60006001846040516104aa9190610d97565b90815260200160405180910390209050828160000190816104cb9190611142565b5060008251905060005b818110156105c9578381815181106104f0576104ef610dae565b5b6020026020010151602001518360010185838151811061051357610512610dae565b5b60200260200101516000015160405161052c9190610d97565b908152602001604051809103902090816105469190611142565b506002866040516105579190610d97565b908152602001604051809103902084828151811061057857610577610dae565b5b6020026020010151600001519080600181540180825580915050600190039060005260206000200160009091909190915090816105b59190611142565b5080806105c190610e76565b9150506104d5565b505050505050565b60008054906101000a900473ffffffffffffffffffffffffffffffffffffffff1673ffffffffffffffffffffffffffffffffffffffff163373ffffffffffffffffffffffffffffffffffffffff161461065f576040517f08c379a000000000000000000000000000000000000000000000000000000000815260040161065690610f0a565b60405180910390fd5b806000806101000a81548173ffffffffffffffffffffffffffffffffffffffff021916908373ffffffffffffffffffffffffffffffffffffffff1602179055507f54e4612788f90384e6843298d7854436f3a585b2c3831ab66abf1de63bfa6c2d816040516106ce9190611223565b60405180910390a150565b604051806040016040528060608152602001606081525090565b6000604051905090565b600080fd5b600080fd5b600080fd5b600080fd5b6000601f19601f8301169050919050565b7f4e487b7100000000000000000000000000000000000000000000000000000000600052604160045260246000fd5b61075a82610711565b810181811067ffffffffffffffff8211171561077957610778610722565b5b80604052505050565b600061078c6106f3565b90506107988282610751565b919050565b600067ffffffffffffffff8211156107b8576107b7610722565b5b6107c182610711565b9050602081019050919050565b82818337600083830152505050565b60006107f06107eb8461079d565b610782565b90508281526020810184848401111561080c5761080b61070c565b5b6108178482856107ce565b509392505050565b600082601f83011261083457610833610707565b5b81356108448482602086016107dd565b91505092915050565b600060208284031215610863576108626106fd565b5b600082013567ffffffffffffffff81111561088157610880610702565b5b61088d8482850161081f565b91505092915050565b600081519050919050565b600082825260208201905092915050565b60005b838110156108d05780820151818401526020810190506108b5565b60008484015250505050565b60006108e782610896565b6108f181856108a1565b93506109018185602086016108b2565b61090a81610711565b840191505092915050565b600081519050919050565b600082825260208201905092915050565b6000819050602082019050919050565b600082825260208201905092915050565b600061095d82610896565b6109678185610941565b93506109778185602086016108b2565b61098081610711565b840191505092915050565b600060408301600083015184820360008601526109a88282610952565b915050602083015184820360208601526109c28282610952565b9150508091505092915050565b60006109db838361098b565b905092915050565b6000602082019050919050565b60006109fb82610915565b610a058185610920565b935083602082028501610a1785610931565b8060005b85811015610a535784840389528151610a3485826109cf565b9450610a3f836109e3565b925060208a01995050600181019050610a1b565b50829750879550505050505092915050565b60006060820190508181036000830152610a7f81866108dc565b90508181036020830152610a9381856108dc565b90508181036040830152610aa781846109f0565b9050949350505050565b600067ffffffffffffffff821115610acc57610acb610722565b5b602082029050602081019050919050565b600080fd5b600080fd5b600080fd5b600060408284031215610b0257610b01610ae2565b5b610b0c6040610782565b9050600082013567ffffffffffffffff811115610b2c57610b2b610ae7565b5b610b388482850161081f565b600083015250602082013567ffffffffffffffff811115610b5c57610b5b610ae7565b5b610b688482850161081f565b60208301525092915050565b6000610b87610b8284610ab1565b610782565b90508083825260208201905060208402830185811115610baa57610ba9610add565b5b835b81811015610bf157803567ffffffffffffffff811115610bcf57610bce610707565b5b808601610bdc8982610aec565b85526020850194505050602081019050610bac565b5050509392505050565b600082601f830112610c1057610c0f610707565b5b8135610c20848260208601610b74565b91505092915050565b600080600060608486031215610c4257610c416106fd565b5b600084013567ffffffffffffffff811115610c6057610c5f610702565b5b610c6c8682870161081f565b935050602084013567ffffffffffffffff811115610c8d57610c8c610702565b5b610c998682870161081f565b925050604084013567ffffffffffffffff811115610cba57610cb9610702565b5b610cc686828701610bfb565b9150509250925092565b600073ffffffffffffffffffffffffffffffffffffffff82169050919050565b6000610cfb82610cd0565b9050919050565b610d0b81610cf0565b8114610d1657600080fd5b50565b600081359050610d2881610d02565b92915050565b600060208284031215610d4457610d436106fd565b5b6000610d5284828501610d19565b91505092915050565b600081905092915050565b6000610d7182610896565b610d7b8185610d5b565b9350610d8b8185602086016108b2565b80840191505092915050565b6000610da38284610d66565b915081905092915050565b7f4e487b7100000000000000000000000000000000000000000000000000000000600052603260045260246000fd5b7f4e487b7100000000000000000000000000000000000000000000000000000000600052602260045260246000fd5b60006002820490506001821680610e2457607f821691505b602082108103610e3757610e36610ddd565b5b50919050565b7f4e487b7100000000000000000000000000000000000000000000000000000000600052601160045260246000fd5b6000819050919050565b6000610e8182610e6c565b91507fffffffffffffffffffffffffffffffffffffffffffffffffffffffffffffffff8203610eb357610eb2610e3d565b5b600182019050919050565b7f556e617574686f72697a65640000000000000000000000000000000000000000600082015250565b6000610ef4600c836108a1565b9150610eff82610ebe565b602082019050919050565b60006020820190508181036000830152610f2381610ee7565b9050919050565b7f5265717569726564206669656c647320617265206d697373696e670000000000600082015250565b6000610f60601b836108a1565b9150610f6b82610f2a565b602082019050919050565b60006020820190508181036000830152610f8f81610f53565b9050919050565b60008190508160005260206000209050919050565b60006020601f8301049050919050565b600082821b905092915050565b600060088302610ff87fffffffffffffffffffffffffffffffffffffffffffffffffffffffffffffffff82610fbb565b6110028683610fbb565b95508019841693508086168417925050509392505050565b6000819050919050565b600061103f61103a61103584610e6c565b61101a565b610e6c565b9050919050565b6000819050919050565b61105983611024565b61106d61106582611046565b848454610fc8565b825550505050565b600090565b611082611075565b61108d818484611050565b505050565b5b818110156110b1576110a660008261107a565b600181019050611093565b5050565b601f8211156110f6576110c781610f96565b6110d084610fab565b810160208510156110df578190505b6110f36110eb85610fab565b830182611092565b50505b505050565b600082821c905092915050565b6000611119600019846008026110fb565b1980831691505092915050565b60006111328383611108565b9150826002028217905092915050565b61114b82610896565b67ffffffffffffffff81111561116457611163610722565b5b61116e8254610e0c565b6111798282856110b5565b600060209050601f8311600181146111ac576000841561119a578287015190505b6111a48582611126565b86555061120c565b601f1984166111ba86610f96565b60005b828110156111e2578489015182556001820191506020850194506020810190506111bd565b868310156111ff57848901516111fb601f891682611108565b8355505b6001600288020188555050505b505050505050565b61121d81610cf0565b82525050565b60006020820190506112386000830184611214565b9291505056fea2646970667358221220215c6c8485aa05194bca6e6ee3a6c9666b910c469214f7f6290bb7ecce5e779264736f6c63430008120033",
  "immutableReferences": {},
  "source": "// SPDX-License-Identifier: GPL-3.0\r\n// Copyright (C) 2023 TrackGenesis Pvt. Ltd.\r\n\r\npragma solidity ^0.8.18;\r\n\r\ncontract BaaS {\r\n    address admin;\r\n\r\n    constructor(address _admin) {\r\n        admin = _admin;\r\n    }\r\n\r\n    modifier onlyAdmin() {\r\n        require(msg.sender == admin, \"Unauthorized\");\r\n        _;\r\n    }\r\n\r\n    event AdminUpdated(address newAdmin);\r\n\r\n    function updateAdmin(address newAdmin) public onlyAdmin {\r\n        admin = newAdmin;\r\n        emit AdminUpdated(newAdmin);\r\n    }\r\n\r\n     struct Product {\r\n        string batchId;\r\n        mapping(string => string) metaData;\r\n    }\r\n\r\n    mapping(string => Product) private products;\r\n    mapping(string => string[]) private metaDataKeys;\r\n\r\n     struct KeyValuePair {\r\n        string key;\r\n        string value;\r\n    }\r\n\r\n    function addProduct(\r\n        string memory _uniqueId,\r\n        string memory _batchId,\r\n        KeyValuePair[] memory _metaData\r\n    ) public onlyAdmin {\r\n        // Validate input data\r\n        require(bytes(_uniqueId).length > 0 &&  bytes(_batchId).length > 0, \"Required fields are missing\");\r\n\r\n       \r\n         Product storage newProduct = products[_uniqueId];\r\n         newProduct.batchId=_batchId;\r\n\r\n         uint256 metaDataLength = _metaData.length;\r\n            for (uint256 i = 0; i < metaDataLength; i++) {\r\n                 newProduct.metaData[_metaData[i].key] = _metaData[i].value;\r\n                metaDataKeys[_uniqueId].push(_metaData[i].key);\r\n            }\r\n    }  \r\n\r\n    function getProductDetails(string memory _uniqueId)\r\n        public\r\n        view\r\n        returns (\r\n            string memory,\r\n            string memory,\r\n            KeyValuePair[] memory\r\n        )\r\n        {\r\n      \r\n        Product storage product = products[_uniqueId];\r\n        uint256 metaDataLength = metaDataKeys[_uniqueId].length;\r\n        KeyValuePair[] memory metaData = new KeyValuePair[](\r\n            metaDataLength\r\n        );\r\n\r\n        for (uint256 i = 0; i < metaDataLength; i++) {\r\n            string memory key = metaDataKeys[_uniqueId][i];\r\n            metaData[i] = KeyValuePair({\r\n                key: key,\r\n                value: product.metaData[key]\r\n            });\r\n        }\r\n              \r\n        return (_uniqueId,product.batchId, metaData);\r\n    }\r\n}",
  "sourcePath": "E:\\TG PROJECTS-NEW\\BaaS_PBC\\server\\contracts\\BaaS.sol",
  "compiler": {
    "name": "solc",
    "version": "0.8.18+commit.87f61d96.Emscripten.clang"
  },
  "schemaVersion": "3.4.13",
  "updatedAt": "2023-10-18T12:09:06.513Z",
  "networkType": "ethereum",
  "devdoc": {
    "kind": "dev",
    "methods": {},
    "version": 1
  },
  "userdoc": {
    "kind": "user",
    "methods": {},
    "version": 1
  }
}